:100000001C110010C1240000292500002925000032
:1000100029250000292500002925000000000000F6
:100020000000000000000000000000002925000082
:10003000292500000000000035350000B541000012
:100040002925000029250000292500002925000078
:100050002925000029250000292500002925000068
:100060002925000029250000292500002925000058
:100070002925000029250000292500002925000048
:100080002925000029250000292500002925000038
:100090002925000029250000292500002925000028
:1000A0002925000029250000292500002925000018
:1000B0002925000029250000292500002925000008
:1000C00029250000292500002925000090B484B0CE
:1000D00000AF78607B6846F2A81202FB03F37B60F6
:1000E0007B681C46FC60013CFC60FCD107F11007FA
:1000F000BD4690BC704700BF80B400AF0E4A0F4BA6
:100100001A600D4B03F1C8020C4B5A600A4A0C4BA3
:100110001A600B4B1B684FF000021A60084B1B68FB
:100120004FF000025A60064B1B684FF000029A60C5
:10013000BD4680BC704700BF20000010EC000010DE
:10014000E800001080B500AF0F4B1B78DBB2012B2D
:1001500011D10E4B1B78012B01D101F075F90C4B1D
:100160001B78DBB2012B01D100F0F8FD064B4FF0FC
:1001700000021A7007E0044B1B78DBB203F1FF3377
:10018000DAB2014B1A7080BDF5000010E4020010D5
:10019000F600001080B500AF174B184A1A60184BD4
:1001A0004FF007021A60174B164A126842F07F425E
:1001B0001A60154A144B1B686FEA03436FEA134336
:1001C000136000F0D5FB02F0EBFAFFF795FF0F4B41
:1001D0001B78DBB203F10103DAB20C4B1A700C4846
:1001E0004FF000014FF4CA520A4B00F091FE09484B
:1001F00003F090F980BD00BF14E000E07FFC0A002E
:1002000010E000E01CED00E020ED00E0F500001043
:10021000E94200009802001080B500AF094B0A4A7D
:100220001A60084B1A68094B1A60064B1B684FF09E
:1002300001025A71034B1B68184600F057FCFFF788
:1002400081FF80BDA802001030010010A402001040
:1002500090B587B000AF0346FB71FA798B4913461E
:100260004FEA43039B184FEAC303CB1803F104037F
:100270001B68FB60FB68002B00F00381844B1B783C
:10028000DBB203F10103DAB2814B1A70814B1B68B8
:10029000002B0CD1FA7913464FEA43039B184FEA1F
:1002A000C3031A46794BD2187A4B1A60E6E0794BB1
:1002B0001B687B61FB683B61DCE03A697B695B68DA
:1002C000D31A3B613B69002B80F2A3807B695B6999
:1002D000002B34D07B695969FA7913464FEA4303FE
:1002E0009B184FEAC3031A46684BD3180B61FA797F
:1002F0007B695969654813464FEA43039B184FEAE7
:10030000C303C31803F114031960FA795F49134654
:100310004FEA43039B184FEAC303CB1803F11003C2
:100320007A691A60FA7913464FEA43039B184FEA39
:10033000C3031A46554BD2187B695A6126E0FA79F5
:10034000544B1968514813464FEA43039B184FEA30
:10035000C303C31803F1100319604E4B1968FA79EF
:1003600013464FEA43039B184FEAC3031A46474B11
:10037000D3184B61FA7913464FEA43039B184FEAAF
:10038000C3031A46414BD218424B1A60FA79F979E5
:100390003E480B464FEA43035B184FEAC303C318BA
:1003A00003F110031B6859683B69C91837481346A5
:1003B0004FEA43039B184FEAC303C31803F1040336
:1003C0001960FA79314913464FEA43039B184FEA03
:1003D000C303CB1803F110031968FA792B481346AD
:1003E0004FEA43039B184FEAC303C31803F11003FA
:1003F0001B685868FA79254C13464FEA43039B184B
:100400004FEAC303E31803F104031B68C31A4B60EC
:1004100034E03B69002B2ADB7B691B69002B26D16A
:10042000FA791A4913464FEA43039B184FEAC3036C
:10043000CB1803F114037A691A60FA7913464FEA6C
:1004400043039B184FEAC3031A46104BD2187B692B
:100450001A61FA7939690D4813464FEA43039B182C
:100460004FEAC303C31803F10403196006E07B6974
:100470001B697B617B69002B7FF41FAFFFF762FE76
:1004800000E000BF07F11C07BD4690BDF80000105A
:10049000F50000102801001080B584B000AF0346BD
:1004A000FB71FA7913464FEA43039B184FEAC303E3
:1004B0001A46314BD318FB60304B1B78DBB203F18B
:1004C0000103DAB22D4B1A70FB685B69002B08D16F
:1004D000FB681B69002B04D1294B4FF000021A6006
:1004E00043E0FB685B69002B16D1FB681A69244B5B
:1004F0001A60234B1B684FF000025A61FB681B69AE
:10050000FA6812695168FA6852688A185A60FB687A
:100510004FF000021A6128E0FB681B69002B09D12B
:10052000FB685B694FF000021A61FB684FF0000244
:100530005A611AE0FB685B69FA6812691A61FB6824
:100540001B69FA6852695A61FB681B69FA6812698B
:100550005168FA6852688A185A60FB684FF00002C6
:100560001A61FB684FF000025A61FFF7EBFD07F1DB
:100570001007BD4680BD00BFF8000010F500001058
:100580002801001080B582B000AF1C4B1B687B6057
:1005900028E07B685B78002B0CD17B681B781846C1
:1005A000FFF77AFF7B684FF001029A707B68DB6887
:1005B000984714E07B685B78012B10D17B681B782F
:1005C0001846FFF769FF7B689A687B685A607B680A
:1005D0001B781846FFF73CFE7B68DB689847074BA3
:1005E0001B687B607B68002B03D07B685B68002BFB
:1005F000CFD007F10807BD4680BD00BF280100101D
:1006000080B500AF084B1B78DBB2012B08D9074B34
:100610004FF001021A70064B4FF001021A7001E010
:10062000FFF7B0FF80BD00BFF5000010E40200102E
:10063000E602001080B485B000AF786039607B6856
:100640001F2B03D97B68A3F1200300E07B68FB60CC
:100650007B681F2B1BD81E4B1D4AD2F8A811FA68C5
:100660004FF0030000FA02F26FEA020201EA02020E
:10067000C3F8A821164B164AD2F8A811FA683868B0
:1006800000FA02F241EA0202C3F8A8211AE0104B74
:100690000F4AD2F8AC11FA684FF0030000FA02F2E8
:1006A0006FEA020201EA0202C3F8AC21084B084AD1
:1006B000D2F8AC11FA68386800FA02F241EA020294
:1006C000C3F8AC2107F11407BD4680BC704700BFDA
:1006D00000C00F4080B485B000AF78607B681F2BEE
:1006E00006D87B68FB600D4BD3F8A831BB6007E0F0
:1006F0007B68A3F12003FB60084BD3F8AC31BB60EF
:10070000FB68BA6822FA03F303F00303BB60BB681B
:10071000184607F11407BD4680BC704700C00F4063
:1007200080B584B000AF7860184B1B68BB607868F8
:10073000FFF7D0FFF860FB68032B1BD801A252F82B
:1007400023F000BF550700005D07000065070000AB
:100750006D0700004FF00403FB600BE04FF0010356
:10076000FB6007E04FF00203FB6003E04FF008037B
:10077000FB6000BFBA68FB68B2FBF3F3BB60BB6809
:10078000184607F11007BD4680BD00BF00000010ED
:1007900080B483B000AF78600B46FB70FB78012B10
:1007A0000CD1114A104BD3F8C41078680F4B00EAF3
:1007B000030341EA0303C2F8C4300FE0FB78002BC7
:1007C0000CD1094A084BD3F8C4107B686FEA0303C5
:1007D0001940064B01EA0303C2F8C43007F10C07C5
:1007E000BD4680BC704700BF00C00F40DEF7EFEF92
:1007F00080B400AF5A4B4FF02002C3F8A021584BF1
:10080000D3F8A03103F02003002B07D000BF544BD6
:10081000D3F8A03103F04003002BF8D0504B4FF039
:100820000302C3F804214E4B4FF00002C3F8A82185
:100830004B4B4FF00002C3F8AC21494B4FF0010283
:10084000C3F80C21464B474AC3F88420444B4FF071
:10085000AA02C3F88C20424B4FF05502C3F88C20FB
:100860003F4B4FF00102C3F880203D4B4FF0AA02EE
:10087000C3F88C203A4B4FF05502C3F88C2000BFD0
:10088000374BD3F8883003F08063002BF8D0344B1B
:100890004FF00302C3F88020314B4FF0AA02C3F897
:1008A0008C202F4B4FF05502C3F88C2000BF2C4BEF
:1008B000D3F8883003F04073002BF8D0284B4FF06A
:1008C0002302C3F8A420264B4FF0AA02C3F8AC20A1
:1008D000234B4FF05502C3F8AC20214B4FF00102DF
:1008E000C3F8A0201E4B4FF0AA02C3F8AC201C4B4B
:1008F0004FF05502C3F8AC2000BF194BD3F8A83015
:1009000003F48063002BF8D0154B4FF00302C3F8BB
:10091000A020134B4FF0AA02C3F8AC20104B4FF0AD
:100920005502C3F8AC2000BF0D4BD3F8A83003F438
:100930004073002BF8D00A4B0B4AC3F8C420084B75
:100940004FF00002C3F8C821054B43F23A021A6087
:10095000064B4FF000029A60BD4680BC704700BF56
:1009600000C00F4063000500DE87280400ED00E0B2
:1009700080B485B000AF184BBB60184B7B604FF064
:100980000003FB7315E0BB68FA7B9A71BB684FF0FC
:1009900003025A71BB687A685A62BB6803F12C0380
:1009A000BB607B6803F12C037B60FB7B03F10103DD
:1009B000FB73FB7B042BE6D9BB68FA7B9A71BB689F
:1009C0004FF000025A62064B034A1A6007F11407FF
:1009D000BD4680BC704700BF300100105C010010B4
:1009E0009C02001080B487B000AF78607B681B79F0
:1009F000FB737B684FF000025A71374B1B683B61F9
:100A00003B691B79FA7B9A421ED13A697B689A420C
:100A10001AD03B69002B17D0304BD3E90001304B83
:100A2000D3E90023904271EB030C0DD23B695B8943
:100A300018464FF000012A4BD3E90023121843EB6C
:100A400001032649C1E90023264B1B683B613B6932
:100A5000002B07D1244B4FF001021A70214B7A680A
:100A60001A6034E03B691B79FA7B9A420DD21E4B27
:100A70004FF001021A707B683A695A623B697A68E2
:100A80009A62184B7A681A6021E03B695B6A7B6165
:100A900009E07B691B79FA7B9A4208D37B693B6149
:100AA0007B695B6A7B617B69002BF2D100E000BF50
:100AB0007B687A695A623B697A685A627B683A69EC
:100AC0009A627B69002B02D07B697A689A6207F18F
:100AD0001C07BD4680BC7047A8020010B002001081
:100AE000D8040010A0020010F600001080B483B0FB
:100AF00000AF78607B685B6A002B08D17B689B6ADB
:100B0000002B04D11D4B4FF000021A6031E07B68CE
:100B10009B6A002B0DD17B685A6A184B1A607B6860
:100B20004FF000025A62154B1B684FF000029A62A8
:100B30001FE07B685B6A002B09D17B689B6A4FF0E2
:100B400000025A627B684FF000029A6211E07B68F3
:100B50009B6A7A68526A5A627B685B6A7A68926AB0
:100B60009A627B684FF000025A627B684FF0000285
:100B70009A6207F10C07BD4680BC7047A0020010C6
:100B800080B586B000AF02460B46FA71BB71FB79A7
:100B9000002B02D14FF01403CFE0FB79052B02D9D3
:100BA0004FF00103C9E0FB794FF02C0202FB03F286
:100BB000644BD3187B617B695B79032B02D14FF0C7
:100BC0000103BAE0BB79402B02D94FF00103B4E036
:100BD0007B691B79BA799A4200F0AD807B69DB7939
:100BE000FF2B17D07B69DB794FEAC302564BD31832
:100BF000FB60FB689A787B699B799A420AD1FB6813
:100C0000BA791A707B691B79BA799A4202D94FF086
:100C1000000392E07B69BA791A717B695B79002BDA
:100C200010D14A4B1B78DBB203F10103DAB2474B18
:100C30001A707869FFF75AFF7869FFF7D3FEFFF75C
:100C400081FA78E07B695B79012B15D17B691A7990
:100C50003F4B1B681B799A426DD93C4B1B78DBB22A
:100C600003F10103DAB2394B1A703A4B4FF001022B
:100C70001A70FFF767FA5EE07B69DB79FF2B39D0EA
:100C8000324B1B78DBB203F10103DAB22F4B1A703F
:100C90007B69DB794FEAC3022B4BD318FB60FB68FF
:100CA0005B687B61FB681B78FB74FB689A78FB6868
:100CB000DA700EE07B691B79FA7C9A4206D97B696F
:100CC0001B79FB747B699A79FB68DA707B695B6AD4
:100CD0007B617B69002BEDD1FFF734FAFB681B7851
:100CE000FA7C9A4206D0FB689A78FB7C104619463B
:100CF000FFF746FFFB794FF02C0202FB03F2114B8A
:100D0000D3187B617B691B7AFF2B14D07B691B7A1C
:100D10004FEA0312104BD318BB60BB685B7923F01A
:100D20000F03DBB2202B06D1786901F097FEB8687B
:100D3000796901F079FD4FF00003184607F11807B3
:100D4000BD4680BD3001001070040010F500001099
:100D5000A0020010F6000010F402001080B584B06C
:100D600000AF4E4B1B68FB604D4B1B68BB60BB6804
:100D7000002B00F083804B4B1B68FA689A427FD1AE
:100D8000494B1B78DBB2012B7CD8484B1B78DBB27C
:100D9000002B79D1464B4FF000021A70FB681B798B
:100DA000FB71BB681B79BB71FB685B79012B0AD0B7
:100DB0003C4BBA681A60BB684FF001025A71B868C0
:100DC000FFF794FE2FE0BA79FB799A420DD2354BAA
:100DD000BA681A60F868FFF705FEB868FFF786FE84
:100DE000BB684FF001025A711DE0FA79BB799A4253
:100DF0004CD1304BD3E900012F4BD3E9002382EAD9
:100E0000000283EA010352EA030141D1254BBA688B
:100E10001A60F868FFF7E6FDB868FFF767FEBB6881
:100E20004FF001025A711F4B1B681A791C4B1B684B
:100E30001B799A420ED11B4B1B685B8918464FF0F9
:100E400000011D4BD3E90023121843EB010319499C
:100E5000C1E90023FB681A68FB68DB689A4205D386
:100E6000FB68DB681A68154B9A4204D0FB689B79D3
:100E7000184603F03FFA02F053FB0AE000BF08E017
:100E800000BF06E000BF04E000BF02E000BF00E0DA
:100E900000BF07F11007BD4680BD00BFA8020010CB
:100EA000A0020010A4020010F5000010F4000010D1
:100EB000F6000010B0020010D8040010A5A55A5A80
:100EC00080B582B000AF104B1B78DBB203F1010399
:100ED000DAB20D4B1A700D4B1B68002B04D1FFF7D3
:100EE00031F94FF000030AE0084B1B687B60074BA9
:100EF0001B685A6A054B1A60FFF724F97B6818468D
:100F000007F10807BD4680BDF50000109C020010E7
:100F100080B588B000AFF860B9607A603B607A68ED
:100F20004A4B02EA03034FEA1323BB837B68FB7639
:100F3000FB68002B02D14FF0FF0382E03B68002BDF
:100F400002D14FF0FF037CE0FB7E402B02D94FF033
:100F5000FF0376E0BB8B132B02D84FF0FF0370E04A
:100F6000F868B9683A6803F0F7F87861FFF7A8FF06
:100F700038613B69002B02D14FF0FF0361E03B6910
:100F80007A691A603B69FA7E1A71BA8B13464FEA86
:100F900083739B1A4FEA830303F104033A68D21860
:100FA0003B69DA603B69DB68294A1A603B694FF0AC
:100FB000FF321A623B694FF000025A623B694FF000
:100FC00000029A627A68234B02EA03034FEA135342
:100FD000FB83FB8B002B02D14FF00A03FB833B69A1
:100FE000FA8B5A813B694FF00002DA613B694FF09E
:100FF000FF021A723B694FF000021A613B694FF021
:1010000000025A613B694FF000029A613B694FF060
:10101000FF02DA717B68002B0DDB0F4B1B78DBB214
:1010200003F10103DAB20C4B1A703869FFF7DAFCEE
:10103000FFF788F803E03B694FF002025A713B6901
:101040009B79184607F12007BD4680BD00FF0F00C1
:10105000A5A55A5A0000FF7FF500001080B584B0A6
:1010600000AF0346FB71FB79052B02D94FF001035A
:101070007AE0FB794FF02C0202FB03F23D4BD318D0
:10108000FB60FB685B79032B02D14FF001036BE03F
:10109000FB79002B02D14FF0140365E0FB685B790C
:1010A000012B07D1344B1B78DBB2002B02D04FF061
:1010B000150359E0FB68DB79FF2B0FD0FB68DB7968
:1010C0002E4A4FEAC303D3189A78FB689B799A4259
:1010D00004D1FB68DB79184602F0ACFA264B1B788A
:1010E000DBB203F10103DAB2234B1A70FB685B79C0
:1010F000002B03D1F868FFF7F9FC22E0FB685B796D
:10110000022B1ED1FB681B6AB3F1FF3F02D0F868C7
:1011100001F08EFAFB681B7AFF2B02D0F86801F011
:101120009DFCFB68DB69002B04D0FB68DB6918467B
:1011300002F0CEFDFB68DB79FF2B02D0F86802F0ED
:101140001FFBFB684FF003025A710D4B4FF0010279
:101150001A700C4B1A68FB685A620A4BFA681A60DC
:10116000FEF7F0FF4FF00003184607F11007BD46E9
:1011700080BD00BF30010010F500001070040010A9
:10118000F60000109C02001080B500AF034B1B68F6
:101190009B791846FFF762FF80BD00BFA8020010D0
:1011A00080B584B000AF786039607A681F4B9A428E
:1011B00004D01F484FF03C0101F0BAF93B68002B06
:1011C00003D03A681B4B9A4204D919484FF03D01AD
:1011D00001F0AEF94FF480504FF00101FFF7D8FA5B
:1011E0007B684FF000021A604FF40013FB604FF071
:1011F0001800FFF795FAB8603A6813464FEA831370
:101200009B18BA68B2FBF3F303F1FF33BB60BB6812
:101210004FEA0323FA6842EA0303FB607B68FA683B
:101220001A6007F11007BD4680BD00BF00400340B3
:1012300000430000400D030080B582B000AF78602D
:101240000B46FB707A681B4B9A4204D01A484FF049
:10125000850101F06DF9FB78002B19D0FB78012B8B
:1012600016D0FB78022B13D0FB78032B10D0FB7821
:10127000042B0DD0FB78052B0AD0FB78062B07D06A
:10128000FB78072B04D00C484FF0860101F050F991
:101290007B681B6823F0E0627B681A607B681A68D1
:1012A000FB784FEA03631A437B681A6007F108076B
:1012B000BD4680BD004003400043000080B582B0C1
:1012C00000AF78600B46FB707A680D4B9A4204D0F1
:1012D0000C484FF0970101F02BF97B681B6823F451
:1012E00080327B681A60FB78002B05D07B681B6816
:1012F00043F480327B681A6007F10807BD4680BD61
:10130000004003400043000080B582B000AF786029
:1013100013460A46FA70BB707A68134B9A4204D09F
:1013200012484FF0E70101F003F9BB78012B0AD115
:101330007B681A68FB784FF0010101FA03F31A4346
:101340007B681A600BE07B681A68FB784FF001013C
:1013500001FA03F36FEA03031A407B681A6007F18E
:101360000807BD4680BD00BF0040034000430000A9
:1013700080B584B000AF78600B46FB707A680F4B85
:101380009A4204D00E484FF0FB0101F0D1F87B687F
:1013900003F11002FB784FEA8303D3181B68FB604C
:1013A000FB684FEA13139BB24FEA03534FEA135300
:1013B0009BB2184607F11007BD4680BD00400340B0
:1013C0000043000080B586B000AFF8600B467A603D
:1013D000FB72FA681A4B9A4204D01A4840F20F1175
:1013E00001F0A6F87B68002B07D07B68012B04D0A6
:1013F000144840F2111101F09BF8FB6803F1100250
:10140000FB7A4FEA8303D3181B687B617B68002B50
:1014100004D07B6903F000437B6103E07B6903F048
:1014200080437B617B69002B02D04FF0010301E018
:101430004FF00003184607F11807BD4680BD00BFF6
:10144000004003400043000080B582B000AF404B35
:101450001B78012B05D101F04BF93D4B4FF00002F9
:101460001A703C4B1B78012B5AD1FFF78BF8394B84
:101470004FF000021A7056E002F046F8364B5B78E7
:10148000354A4FEAC303D3183A4603F1040393E8FD
:10149000030082E80300304B5B7803F101012F4B1E
:1014A00083FB01234FEA63024FEAE173D21A13462A
:1014B0004FEA83039B18CA1AD2B2274B5A70264BA5
:1014C0001B7803F1FF33DAB2234B1A7002F016F8DF
:1014D0003B7803F1FF33032B24D801A252F823F009
:1014E000F1140000FB1400000915000013150000A2
:1014F0007B78184602F0B4FE15E07A787B681046D7
:10150000194600F09BFF0EE07B78184602F0E8FADF
:1015100009E07A787B681046194602F029F802E063
:1015200000BF00E000BF0C4B1B78002BA4D101F0E2
:10153000EBFF094B1B78002B03D1094B4FF0000246
:101540001A7001F0DBFF07F10807BD4680BD00BF40
:10155000E5020010E6020010B80200106766666639
:10156000E402001080B500AF124B1B684FF0000082
:1015700019464FF0010200F0F7FE0F4B1B684FF0C9
:10158000000019464FF0010200F0EEFE0B4B1B6805
:101590004FF0000019464FF0000200F0E5FE02F0A7
:1015A000DFFB01F077FFFEF7F5FD00F009F8FEF72D
:1015B00033FEFEE7080000100C00001004000010CD
:1015C00080B500AF4FF001004FF0000102F05CF970
:1015D00003461A46124B1A704FF001004FF00001FB
:1015E00002F052F903461A460E4B1A700E484FF09D
:1015F000000148F203020D4BFFF78AFC0C484FF044
:10160000000148F202020B4BFFF782FC0A484FF040
:10161000000148F20102094BFFF77AFC80BD00BFD0
:10162000E6080010E508001041160000E008001070
:10163000F9170000E0060010A1160000E80A0010EB
:1016400080B584B000AF78604FF00003FB60FB68AA
:1016500003F00103002B05D10E4B1B78184602F056
:101660003FFA12E0FA680C4B02EA0303002B05DA9A
:1016700003F1FF3363F0010303F10103012B04D1F4
:10168000064B1B78184602F02BFAFB6803F10103A6
:10169000FB60DCE7E608001001000080E5080010B0
:1016A00080B584B000AF786002E000BF00E000BF0A
:1016B000444B1B7818464FF0000102F037F94FF009
:1016C000000000F0A3FEF8603F4B1A68FB6802EAD6
:1016D0000303002BE9D13D4B1B68002B40D13B4B52
:1016E0004FF001021A603A484FF002014FF0010238
:1016F000FFF768FE0346002B1BD035484FF0020170
:10170000FFF736FE03461A46324B1A60314B1B6810
:101710001A46314B1A60314B1B684FF000001946D6
:1017200000F05EFE2E4B1B684FF00000194600F0E3
:1017300057FE4FF4FA70FEF7C9FC4FF0010029493B
:1017400000F0AEFD4FF0020000F0C0FD4FF00300CE
:10175000254900F0A5FD4FF47A70FEF7B7FCA7E726
:101760001A4B1B68002BA2D04FF001001D4900F05E
:1017700097FD4FF0020000F0A9FD4FF003001B4958
:1017800000F08EFD114B4FF000021A60134B1B68E6
:101790004FF00000194600F023FE114B1B684FF07C
:1017A0000000194600F01CFE11484FF0000148F2FD
:1017B0000102104BFFF7ACFB4FF4FA70FEF786FC0A
:1017C00076E700BFE508001004000010EC020010EE
:1017D000004003401C0D0010180D00100800001000
:1017E0000C0000105C4300006443000070430000E4
:1017F000F9170000E006001080B582B000AF7860F5
:1018000000E000BF634B1B7818464FF0000102F068
:101810008DF8614B1B68012BF3D14FF001005F493C
:1018200000F03EFD4FF002005D4900F039FD4FF041
:1018300003005C4900F034FD4FF4FA60FEF746FC0B
:101840004FF0010000F042FD4FF00200564900F059
:1018500027FD564B1B68184602F0F8FB4FF00300BB
:1018600000F034FD4FF4FA60FEF730FC4FF0010059
:101870004F4900F015FD4FF002004E4900F010FDF9
:101880004FF0030000F022FD4FF4FA60FEF71EFC5B
:101890004FF0010000F01AFD4FF0020000F016FDBD
:1018A0004FF0030000F012FD43484FF002014FF0EB
:1018B0000102FFF787FD0346002B00F078813E48C8
:1018C0004FF00201FFF754FD03461A463B4B1A60E6
:1018D0003A4B1B681A463A4B1A60394B1A68334B1D
:1018E0001B68D21A374B1A60364B1B68002B73DB10
:1018F00002F036FA4FF001004FF0000102F0CCFA8E
:10190000314802F027FB4FF002004FF0000102F0D7
:10191000C3FA254802F01EFB4FF003004FF0000110
:1019200002F0BAFA294802F015FB4FF001004FF01F
:10193000040102F0B1FA224B1B68184602F086FB44
:101940004FF002004FF0040102F0A6FA174B1B689B
:10195000184602F07BFB4FF003004FF0040102F049
:101960009BFA184B1B68184602F070FB184B1B685B
:101970004FF00000194600F01DFD164B1B684FF09C
:101980000000194600F02CFD4FF47A60FEF79EFB34
:101990000DE100BFE6080010EC02001078430000E3
:1019A000804300008843000094430000180D00109D
:1019B00098430000A0430000004003401C0D0010AD
:1019C000EC0A0010E8020010A8430000AC4300003D
:1019D000080000100C00001002F0C2F9844B1B68D4
:1019E000C3F10002824B1A604FF001004FF000017A
:1019F00002F052FA7F4802F0ADFA4FF002004FF0C9
:101A0000000102F049FA7C4802F0A4FA4FF003000A
:101A10004FF0000102F040FA784802F09BFA744B54
:101A20001968774B83FB01234FEAA3024FEAE17366
:101A3000D21A13464FEA83039B184FEA4303CA1A8C
:101A4000D3B203F13003DAB26E4B1A70684B1B68E5
:101A50006B4A82FB03124FEAA2024FEAE373D11AE8
:101A6000674B83FB01234FEAA3024FEAE173D21ACB
:101A700013464FEA83039B184FEA4303CA1AD3B2B3
:101A800003F13003DAB2604B1A70594B1B685F4A9E
:101A900082FB03124FEA62124FEAE373D11A584BEA
:101AA00083FB01234FEAA3024FEAE173D21A1346E4
:101AB0004FEA83039B184FEA4303CA1AD3B203F1D8
:101AC0003003DAB2524B1A70494B1B68514A82FB01
:101AD00003124FEAA2124FEAE373D11A484B83FB79
:101AE00001234FEAA3024FEAE173D21A13464FEAE9
:101AF00083039B184FEA4303CA1AD3B203F130039E
:101B0000DAB2454B1A704FF001004FF0040102F0B9
:101B1000C3F9424B1B68184602F098FA4FF00200D6
:101B20004FF0040102F0B8F93D4B1B68184602F073
:101B30008DFA4FF003004FF0050102F0ADF9364B7E
:101B40001B78184602F052FA4FF003004FF00601DE
:101B500002F0A2F92E4B1B78184602F047FA4FF01C
:101B600003004FF0070102F097F9274B1B78184646
:101B700002F03CFA4FF003004FF0080102F08CF93C
:101B8000204B1B78184602F031FA264B1B684FF0A9
:101B90000000194600F00EFC234B1B684FF00000BC
:101BA000194600F01DFC4FF47A60FEF78FFA4FF0F3
:101BB00001001E4900F074FB4FF002001C4900F0C8
:101BC0006FFB4FF0030000F081FB4FF4FA60FEF76B
:101BD0007DFA184B4FF002021A6017484FF00001CF
:101BE00048F20102154BFFF793F9FFF7CDFA09E62A
:101BF000E8020010A843000094430000B043000036
:101C000067666666E7080010E40800101F85EB5160
:101C1000E0040010D34D6210100D0010EC0A00100B
:101C2000180D0010080000100C000010B843000050
:101C3000A0430000EC020010411C0000F00C00105A
:101C400080B584B000AF7860874B1B7818464FF0A2
:101C5000000101F06BFE854B1B68022B40F0CC822B
:101C60004FF00100824900F01BFB4FF00200814958
:101C700000F016FB4FF0030000F028FB4FF4FA6071
:101C8000FEF724FA4FF001007B4900F009FB4FF00A
:101C900002007A4900F004FB4FF0030000F016FB4D
:101CA0004FF4FA60FEF712FA4FF0010000F00EFB5D
:101CB0004FF0020000F00AFB4FF00603FB60FB68E8
:101CC000C3F100036E4A126802FB03F26D4B1A6007
:101CD0006C4B1B68002BC0F2EB80694B1B68002B20
:101CE00050DB02F03DF84FF001004FF0000102F030
:101CF000D3F8654802F02EF94FF002004FF00001D2
:101D000002F0CAF8614802F025F94FF003004FF0E5
:101D1000000102F0C1F85E4802F01CF94FF001002A
:101D20004FF0040102F0B8F85A4B1B68184602F055
:101D30008DF94FF002004FF0040102F0ADF8504B66
:101D40001B68184602F082F94FF003004FF00401BF
:101D500002F0A2F84B4B1B68184602F077F94E4B85
:101D60001B684FF00000194600F024FB4B4B1B682A
:101D70004FF00000194600F033FB4FF47A60FEF795
:101D8000A5F939E201F0ECFF4FF001004FF000013E
:101D900002F082F83C4802F0DDF84FF002004FF00C
:101DA000000102F079F8394802F0D4F84FF003004E
:101DB0004FF0000102F070F8354802F0CBF84FF018
:101DC00001004FF0040102F067F8324B1B6818461F
:101DD00002F03CF94FF002004FF0040102F05CF811
:101DE0002F4B1B78184602F001F94FF002004FF01C
:101DF000050102F051F82B4B1B78184602F0F6F85B
:101E00004FF002004FF0060102F046F8264B1B7817
:101E1000184602F0EBF84FF002004FF0070102F015
:101E20003BF8224B1B78184602F0E0F84FF0030015
:101E30004FF0040102F030F8124B1B68184602F014
:101E400005F9154B1B684FF00000194600F0B2FA77
:101E5000124B1B684FF00000194600F0C1FA4FF416
:101E60007A60FEF733F9C7E1E6080010EC020010D3
:101E7000B8430000A043000098430000BC430000AA
:101E8000E8020010140D0010A8430000AC4300004D
:101E9000C4430000EC0A0010080000100C00001001
:101EA000100D0010E0040010E4080010E708001016
:101EB000784B1B68C3F10002764B1A60754B1968AA
:101EC000754B83FB01234FEAA3024FEAE173D21A59
:101ED00013464FEA83039B184FEA4303CA1AD3B24F
:101EE00003F13003DAB26D4B1A706A4B1B686A4A11
:101EF00082FB03124FEAA2024FEAE373D11A664B48
:101F000083FB01234FEAA3024FEAE173D21A13467F
:101F10004FEA83039B184FEA4303CA1AD3B203F173
:101F20003003DAB25E4B1A705A4B1B685D4A82FB73
:101F300003124FEA62124FEAE373D11A564B83FB46
:101F400001234FEAA3024FEAE173D21A13464FEA84
:101F500083039B184FEA4303CA1AD3B203F1300339
:101F6000DAB2514B1A704B4B1B68504A82FB03127A
:101F70004FEAA2124FEAE373D11A474B83FB0123C6
:101F80004FEAA3024FEAE173D21A13464FEA8303E2
:101F90009B184FEA4303CA1AD3B203F13003DAB2F3
:101FA000434B1A70434B1B68002BC0F2938001F027
:101FB000D7FE4FF001004FF0000101F06DFF3E48E9
:101FC00001F0C8FF4FF002004FF0000101F064FF84
:101FD0003A4801F0BFFF4FF003004FF0000101F05D
:101FE0005BFF374801F0B6FF4FF001004FF00401EE
:101FF00001F052FF334B1B68184602F027F84FF0F0
:1020000002004FF0040101F047FF2A4B1B681846FD
:1020100002F01CF84FF003004FF0040101F03CFF08
:10202000234B1B78184601F0E1FF4FF003004FF0FF
:10203000050101F031FF1C4B1B78184601F0D6FF5B
:102040004FF003004FF0060101F026FF144B1B7800
:10205000184601F0CBFF4FF003004FF0070101F0ED
:102060001BFF194B1B78184601F0C0FF174B1B686C
:102070004FF00000194600F09DF9154B1B684FF01A
:102080000000194600F0ACF94FF47A60FEF71EF834
:10209000B2E000BF140D001067666666E908001024
:1020A000110D00101F85EB51F00A0010D34D621086
:1020B000E8080010E8020010A8430000AC4300004C
:1020C000C8430000EC0A0010E708001008000010E8
:1020D0000C00001001F044FE4FF001004FF0000131
:1020E00001F0DAFE5C4801F035FF4FF002004FF0DE
:1020F000000101F0D1FE594801F02CFF4FF0030020
:102100004FF0000101F0C8FE554801F023FF4FF0E9
:1021100001004FF0040101F0BFFE524B1B6818464E
:1021200001F094FF4FF002004FF0050101F0B4FE02
:102130004D4B1B78184601F059FF4FF002004FF04D
:10214000060101F0A9FE494B1B78184601F04EFF2D
:102150004FF002004FF0070101F09EFE444B1B7848
:10216000184601F043FF4FF002004FF0080101F064
:1021700093FE404B1B78184601F038FF4FF00300E8
:102180004FF0040101F088FE3B4B1B78184601F02C
:102190002DFF4FF003004FF0050101F07DFE374B9E
:1021A0001B78184601F022FF4FF003004FF00601A4
:1021B00001F072FE324B1B78184601F017FF4FF00A
:1021C00003004FF0070101F067FE2A4B1B78184609
:1021D00001F00CFF2B4B1B684FF00000194600F07C
:1021E000E9F8294B1B684FF00000194600F0F8F899
:1021F0004FF47A60FDF76AFF4FF00100234900F0C9
:102200004FF84FF00200224900F04AF84FF0030067
:1022100000F05CF84FF47A70FDF758FF194B1B681B
:102220004FF00000194600F0DBF8174B1B684FF029
:102230000000194600F0D4F8164B4FF001021A6066
:1022400015484FF0000148F20102144BFEF760FE02
:10225000FEF79AFFF8E400BFA8430000B043000077
:10226000C8430000EC0A0010100D0010E00400103C
:10227000E4080010E7080010E8080010F00A001059
:10228000110D0010080000100C000010CC430000DD
:10229000D8430000EC020010F9170000E00600101F
:1022A00080B582B000AF78603960786800F00EF8D1
:1022B0007B68DBB218464FF0000101F0EDFD386895
:1022C00001F048FE07F10807BD4680BD80B582B029
:1022D00000AF78607B68DBB218464FF0000101F078
:1022E000DBFD034801F036FE07F10807BD4680BD5F
:1022F000E443000080B485B000AF0346FB714FF0AB
:102300000003FB60FB79042B1BD801A252F823F0D9
:10231000252300002B230000312300003723000079
:102320003D2300000B4BFB600CE00B4BFB6009E016
:102330000A4BFB6006E00A4BFB6003E0094BFB60C5
:1023400000E000BFFB68184607F11407BD4680BCDB
:10235000704700BF00C0092020C0092040C00920EC
:1023600060C0092080C0092080B586B000AFB96088
:1023700013460246FA73FB71FB7B1846FFF7BAFF60
:1023800078617B69002B11D0FB79002B06D07B692B
:102390001A68BB681A437B691A6007E07B691A6890
:1023A000BB686FEA03031A407B691A6007F11807DC
:1023B000BD4680BD80B584B000AF03463960FB7177
:1023C000FB791846FFF796FFF860FB68002B02D0F8
:1023D000FB683A689A6107F11007BD4680BD00BFEF
:1023E00080B584B000AF03463960FB71FB791846B5
:1023F000FFF780FFF860FB68002B02D0FB683A68AB
:10240000DA6107F11007BD4680BD00BF80B584B01A
:1024100000AF0346FB71FB791846FFF76BFFF860CE
:10242000FB68002B02D0FB685B6901E04FF0000302
:10243000184607F11007BD4680BD00BF80B584B0C7
:1024400000AF03463960FB71FB79132B02D94FF0C3
:1024500001032CE0FB794FEA0312174BD318FB6002
:10246000FB685B7903F00F03DBB2022B02D04FF065
:1024700001031CE0FB68DB88002B16D10F4B1B7897
:10248000DBB203F10103DAB20C4B1A70FB683A6855
:102490001A60FB684FF00102DA80F86800F04AFA2F
:1024A000FDF750FE4FF0000301E04FF00703184620
:1024B00007F11007BD4680BDF4020010F5000010C2
:1024C00080B582B000AF134B7B60134B3B600BE0D9
:1024D0007B681A683B681A603B6803F104033B6041
:1024E0007B6803F104037B603A680C4B9A42EFD39C
:1024F0000B480C494FF000028842B8BF40F8042B4B
:10250000FADBFEF775F9FFF72DF807F10807BD466E
:1025100080BD00BF6C440000000000101C000010D3
:1025200020000010200D001080B400AFFEE700BFB7
:1025300080B483B000AF78603960FEE780B485B0C6
:1025400000AF786039603B68002B67D0364B1B6862
:10255000002B06D17B683A681A62334B7A681A609E
:1025600053E0314B1B68BB603B68FB604AE0FA6894
:10257000BB681B6AD31AFB60FB68002B2EDABB68B2
:102580009B6A002B0ED0BB689B6A7A685A62BB6854
:102590009A6A7B689A627B68BA685A62BB687A6892
:1025A0009A620AE0204B1A687B685A621E4B1B68CD
:1025B0007A689A621C4B7A681A607B685B6A1A6A4E
:1025C000FB68D2187B681A627B685B6A7A68526A19
:1025D000116A7A68126A8A1A1A6216E0FB68002B7E
:1025E0000DDBBB685B6A002B09D17B68BA689A6215
:1025F000BB687A685A62FA687B681A6205E0BB6851
:102600005B6ABB60BB68002BB1D17B684FF00202F4
:102610005A71064B4FF001021A7000E000BF07F13B
:102620001407BD4680BC7047F0020010F600001091
:1026300080B483B000AF78607B689B6A002B08D1C0
:102640007B685B6A002B04D1284B4FF000021A60B4
:1026500043E07B689B6A002B16D17B685A6A234B48
:102660001A607B685B6A7A68526A116A7A68126AD1
:102670008A181A627B685B6A4FF000029A627B6874
:102680004FF000025A6228E07B685B6A002B09D198
:102690007B689B6A4FF000025A627B684FF0000231
:1026A0009A621AE07B689B6A7A68526A5A627B680F
:1026B0005B6A7A68926A9A627B685B6A7A68526A35
:1026C000116A7A68126A8A181A627B684FF00002EF
:1026D0005A627B684FF000029A627B684FF0FF32CB
:1026E0001A6207F10C07BD4680BC7047F00200106B
:1026F00080B582B000AF1C4B1B687B6028E07B6814
:102700001B7AFF2B02D0786800F0A8F97B68DB69A0
:10271000002B04D07B68DB69184601F0D9FA7B688E
:102720004FF0FF321A627B685A6A0F4B1A607B685F
:102730004FF000025A627868FEF754F90A4B1B68A2
:102740007B607B68002B03D07B684FF000029A62AD
:102750007B68002B03D07B681B6A002BCFD007F16E
:102760000807BD4680BD00BFF002001080B500AF75
:10277000084B1B78DBB2012B08D9074B4FF0010245
:102780001A70064B4FF001021A7001E0FFF7B0FF1C
:1027900080BD00BFF5000010E4020010E50200104B
:1027A00080B485B000AF4FF00003FB731B4BBB60E0
:1027B0001B4B7B6018E0BB687A681A60BB68FA7BC9
:1027C0001A71BA6853794FF0040161F3030353712E
:1027D000BB6803F11003BB607B6803F110037B60EF
:1027E000FB7B03F10103FB73FB7B122BE3D9BA687C
:1027F00053794FF0040161F303035371BB684FF049
:1028000000021A60BB68FA7B1A71064B034A1A6011
:1028100007F11407BD4680BC704700BFF4020010EA
:10282000040300103404001080B584B000AF786059
:1028300039603E4B1B78DBB203F10103DAB23B4B4C
:102840001A707B68DB68FB607B681A793B681A72D8
:102850007B685B7923F00F03DBB2102B16D1FB688A
:10286000002B07D17B683A68DA6050E0FB685B694F
:10287000FB6000E000BFFB685B69002BF6D1FB68E2
:102880003A685A613B68FA689A6140E07B685B7914
:1028900023F00F03DBB2202B39D1FB68002B03D1CF
:1028A0007B683A68DA6032E0FB681A793B681B792A
:1028B0009A4209D97B683A68DA603B68FA685A61DB
:1028C000FB683A689A6122E0FB685B69BB600AE0DA
:1028D000BB681A793B681B799A4208D8BB68FB60D1
:1028E000BB685B69BB60BB68002BF1D100E000BF37
:1028F000FB683A685A613B68FA689A613B68BA6853
:102900005A61BB68002B02D0BB683A689A613B6889
:102910004FF002025A71064B4FF001021A70FDF798
:1029200011FC07F11007BD4680BD00BFF500001087
:10293000F600001080B584B000AF78607B68DB687B
:10294000FB60FB68002B00F08180FB685A697B68A4
:10295000DA607B68DB68002B04D07B68DB684FF0B3
:1029600000029A61FB684FF000025A61FB684FF069
:10297000FF021A72FB681B6AB3F1FF3F02D0F868CE
:10298000FFF756FE7B685B7903F00F03DBB2022B87
:102990000FD17B681A68FB681A617B684FF00002F0
:1029A0001A607B68DB8803F1FF339AB27B68DA80B8
:1029B0003EE07B685B7903F00F03DBB2032B25D18C
:1029C0007B681B68BB60BB681A68BB68DB884FEA22
:1029D0008303D3181A68FB681A61BB68DB8803F1AC
:1029E00001039AB2BB68DA80BB689B8903F1FF33AD
:1029F0009AB2BB689A81BB68DA88BB685B899A42E5
:102A000016D1BB684FF00002DA8011E07B685B7979
:102A100003F00F03DBB2012B0AD17B68DB8803F1E3
:102A2000FF339AB27B68DA80FB684FF0FF321A619D
:102A3000094B1B68FA689A4204D1FB684FF0010207
:102A40005A7104E0F868FDF7CDFF00E000BF07F120
:102A50001007BD4680BD00BFA802001080B485B03D
:102A600000AF78607B681B7A4FEA0312254BD318BE
:102A7000FB607B685B69002B08D17B689B69002B3E
:102A800004D1FB684FF00002DA6031E07B689B699B
:102A9000002B0DD17B685B694FF000029A617B6867
:102AA0005A69FB68DA607B684FF000025A611FE0E8
:102AB0007B685B69002B09D17B689B694FF0000242
:102AC0005A617B684FF000029A6111E07B689B6954
:102AD0007A6852695A617B685B697A6892699A611F
:102AE0007B684FF000029A617B684FF000025A61E8
:102AF0007B684FF0FF021A7207F11407BD4680BCD5
:102B0000704700BFF402001080B487B000AF1346D6
:102B10000246FA710A46BA717B71BB797B61FB7917
:102B20004FEA43033B611E4BFB607B690F2B07D9C8
:102B30007B69A3F110037B613B6903F101033B61F6
:102B40003B694FEA8303FA68D3183A694FEA820275
:102B5000F9688A1811687A694FEA42024FF0030057
:102B600000FA02F26FEA020201EA02021A603B690D
:102B70004FEA8303FA68D3183A694FEA8202F96888
:102B80008A18116878797A694FEA420200FA02F2EB
:102B900041EA02021A6007F11C07BD4680BC70477B
:102BA00000C0024080B487B000AF13460246FA71FD
:102BB0000A46BA717B71BB797B61FB794FEA4303AB
:102BC0003B611E4BFB607B690F2B07D97B69A3F12F
:102BD00010037B613B6903F101033B613B694FEAF1
:102BE0008303FA68D3183A694FEA8202F9688A18AF
:102BF00011687A694FEA42024FF0030000FA02F2CC
:102C00006FEA020201EA02021A603B694FEA83039B
:102C1000FA68D3183A694FEA8202F9688A1811688B
:102C200078797A694FEA420200FA02F241EA020236
:102C30001A6007F11C07BD4680BC704740C00240C7
:102C400080B485B000AF13460246FA710A46BA71E5
:102C50007B71194BFB607B79012B13D1FB794FEA18
:102C60008303FA68D318FA794FEA8202F9688A185E
:102C70001168BA794FF0010000FA02F241EA02024B
:102C80001A6014E0FB794FEA8303FA68D318FA79E3
:102C90004FEA8202F9688A181168BA794FF0010088
:102CA00000FA02F26FEA020201EA02021A6007F178
:102CB0001407BD4680BC704768C0024080B582B032
:102CC00000AF78607B6819787B685A787B689B785E
:102CD000084611461A46FFF717FF7B6819787B688C
:102CE0005A787B68DB78084611461A46FFF75AFF88
:102CF0007B6819787B685A787B681B79084611468F
:102D00001A46FFF79DFF07F10807BD4680BD00BFCB
:102D100080B483B000AF0346FB71094B97F90720DD
:102D20004FEA5212F97901F01F014FF0010000FA49
:102D300001F143F8221007F10C07BD4680BC704733
:102D400000E100E080B483B000AF0346FB710A4BA2
:102D500097F907204FEA5212F97901F01F014FF05D
:102D6000010000FA01F102F1200243F8221007F1FC
:102D70000C07BD4680BC704700E100E080B483B022
:102D800000AF78607A680E4B9A4202D14FF0000390
:102D90000FE07A680B4B9A4202D14FF0010308E032
:102DA0007A68094B9A4202D14FF0020301E04FF0DA
:102DB000FF33184607F10C07BD4680BC704700BFC3
:102DC00000C0014000C0054000000A4080B483B04C
:102DD00000AF78607B684FF008029A617B684FF023
:102DE00020021A6000BF7B681B6803F00803002BF9
:102DF000F9D07B684FF020029A617B685B6803F032
:102E0000F803184607F10C07BD4680BC704700BFA9
:102E100080B483B000AF78607B681B6803F0200348
:102E2000002B03D07B684FF020029A617B684FF043
:102E300010021A607B684FF008029A6107F10C07D4
:102E4000BD4680BC704700BF80B483B000AF7860DF
:102E50000B46FB707B681B6803F02003002B03D03C
:102E60007B684FF020029A61FA787B689A607B68F1
:102E70004FF008029A6100BF7B681B6803F00803EB
:102E8000002BF9D07B685B6803F0F803184607F164
:102E90000C07BD4680BC704780B485B000AFF860B9
:102EA000B9601346FB71FB79012B04D1FB684FF02D
:102EB00004021A6003E0FB684FF004029A61FB68A9
:102EC0004FF008029A6100BFFB681B6803F008031B
:102ED000002BF9D0FB689B68DAB2BB681A70FB68FC
:102EE0005B6803F0F803184607F11407BD4680BC81
:102EF000704700BF80B584B000AF786039607A68F1
:102F0000234B9A420CD07A68224B9A4208D07A68B6
:102F1000214B9A4204D021484FF0D801FFF708FB1B
:102F20007A681B4B9A4209D14FF00E00FDF7F8FB6F
:102F300002463B68B2FBF3F3FB601AE07A68154B7C
:102F40009A4209D14FF02600FDF7EAFB02463B68A2
:102F5000B2FBF3F3FB600CE07A680F4B9A4208D1A6
:102F60004FF02600FDF7DCFB02463B68B2FBF3F3B3
:102F7000FB60FB684FEA53027B681A617B681B6940
:102F8000FA68D21A7B685A6107F11007BD4680BD06
:102F900000C0014000C0054000000A40F4430000AA
:102FA00080B582B000AF786039607A68274B9A426A
:102FB0000CD07A68264B9A4208D07A68254B9A4200
:102FC00004D025484FF48071FFF7B2FA7A681F4B9E
:102FD0009A420CD14FF080004FF00101FDF7D8FB71
:102FE0004FF00E004FF00201FDF724FB20E07A685D
:102FF000174B9A420CD14FF400204FF00101FDF71E
:10300000C7FB4FF026004FF00201FDF713FB0FE066
:103010007A68104B9A4214D14FF080604FF0010152
:10302000FDF7B6FB4FF034004FF00201FDF702FB55
:1030300078683968FFF75EFF7B684FF064029A6139
:1030400000E000BF07F10807BD4680BD00C0014099
:1030500000C0054000000A40F443000080B582B083
:1030600000AF78600B46FB70FB78002B07D0FB7835
:10307000012B04D0124840F25111FFF759FA7A6837
:10308000104B9A420CD07A680F4B9A4208D07A685B
:103090000E4B9A4204D00A484FF4A971FFF748FA40
:1030A000FB78012B04D17B684FF040021A6003E0EB
:1030B0007B684FF040029A6107F10807BD4680BD6A
:1030C000F443000000C0014000C0054000000A4079
:1030D00080B582B000AF78600B46FB70FB78002BA8
:1030E0001AD07A681B4B9A4204D14FF00A00FFF7BE
:1030F0000FFE2BE07A68184B9A4204D14FF00B0078
:10310000FFF706FE22E07A68144B9A421ED14FF078
:103110000C00FFF7FDFD19E07A680E4B9A4204D1CE
:103120004FF00A00FFF70EFE10E07A680A4B9A4251
:1031300004D14FF00B00FFF705FE07E07A68074B5C
:103140009A4203D14FF00C00FFF7FCFD07F108078E
:10315000BD4680BD00C0014000C0054000000A40DF
:1031600080B588B000AFF860B9601346FB71BB68EA
:103170005B68FB61BB681B69BB61BB684FF0000209
:10318000DA60BB684FF000029A61BB684FF0000242
:103190005A62FB79002B40F04D81BB684FF0000272
:1031A0001A620CE000BF0AE000BF08E000BF06E0C2
:1031B00000BF04E000BF02E000BF00E000BFBB684A
:1031C0005B68FB61BB681B69BB61BB684FF00002B9
:1031D000DA60BB684FF000029A614FF000037B6138
:1031E000F868FFF7F3FD78617B69082B12D07B69E3
:1031F000102B0FD0BB681B6A03F10102BB681A6277
:10320000BB681A6ABB68DB699A42CBD9BB687A692A
:103210005A6209E1BB689B68002B51D0BB685B68B0
:10322000002B4DD0BB681B68DBB24FEA4303DBB217
:10323000F8681946FFF708FE78617B69182B38D0CB
:10324000BB681B6A03F10102BB681A62BB681A6A99
:10325000BB68DB699A42A7D97B6943F40072BB68FB
:103260005A62E1E0FB691B78F8681946FFF7ECFD4C
:1032700078617B69282B11D0BB681B6A03F10102BE
:10328000BB681A62BB681A6ABB68DB699A428DD94F
:103290007B6943F40072BB685A62C5E0FB6903F1C5
:1032A0000103FB61BB68DB6803F10102BB68DA6004
:1032B00000E000BFBB68DA68BB689B689A42D1D364
:1032C000BB689B68002B26D0BB685B68002B22D0B4
:1032D000BB685B69002B1ED0BB681B69002B1AD032
:1032E000F868FFF773FD78617B69082B13D07B6961
:1032F000102B10D0BB681B6A03F10102BB681A6275
:10330000BB681A6ABB68DB699A427FF651AFBB683B
:103310007A695A6288E0BB685B69002B7ED0BB6823
:103320001B69002B7AD0BB681B68DBB24FEA4303F2
:10333000DBB243F00103DBB2F8681946FFF784FD06
:1033400078617B69402B62D0BB681B6A03F1010284
:10335000BB681A62BB681A6ABB68DB699A427FF66F
:1033600029AF7B6943F40072BB685A625CE0BB68BA
:103370009A69BB685B6903F1FF339A421CD207F17B
:103380001303F86819464FF00102FFF785FD7861D5
:103390007B69502B2DD0BB681B6A03F10102BB680F
:1033A0001A62BB681A6ABB68DB699A427FF604AF8F
:1033B000BB687A695A6237E007F11303F868194667
:1033C0004FF00002FFF768FD78617B69582B10D041
:1033D000BB681B6A03F10102BB681A62BB681A6A08
:1033E000BB68DB699A427FF6E9AEBB687A695A62CC
:1033F0001AE0FA7CBB691A70BB6903F10103BB6177
:10340000BB689B6903F10102BB689A6100E000BFE1
:10341000BB689A69BB685B699A42A8D3F868FFF7F2
:10342000F7FC4FF001032EE0F868FFF7F1FC4FF0D6
:10343000000328E0FB79012B23D1F868FFF79EFCFD
:103440000346DBB2FB74FB7C1A46B968104B43F8A9
:103450003210FB7C0E4A4FEAC303D3184FF0000230
:103460005A60FB684FF008029A61FB684FF0200237
:103470001A60F8684FF00101FFF72AFE4FF00103D0
:1034800001E04FF00003184607F12007BD4680BD5C
:103490003804001080B582B000AF4FF00103BB705C
:1034A0004FF000033B714FF00003FB704FF0190326
:1034B0007B704FF000033B703B461846FFF7FEFB66
:1034C0000C480D49FDF76CFE0A484FF002014FF021
:1034D0000102FDF719FF07484FF00101FDF7EEFE6D
:1034E00004484FF00001FDF7A7FE07F10807BD46AD
:1034F00080BD00BF00400340400D030080B400AF1A
:1035000062B6BD4680BC704780B400AF72B6BD469F
:1035100080BC7047A0F11C0080F30988704700BF91
:10352000024B1B68024A11681960704710000010B6
:10353000140000100B4B19680B4A126891420AD014
:10354000EFF3098020E9F00F08601A601068B0E816
:10355000F00F80F30988054B002018704EF0040E20
:1035600070470000A8020010A4020010F50000102F
:1035700080B584B000AF03463960FB71FB79132B33
:1035800002D94FF001034BE0FB794FEA0312274BBE
:10359000D318FB60FB685B7903F00F03DBB2032BEE
:1035A00002D04FF001033BE0FB681B68BB60BB68C7
:1035B0009A89BB685B899A4202D14FF008032FE0D9
:1035C0001B4B1B78DBB203F10103DAB2184B1A7004
:1035D000BB681A68BB681B894FEA8303D3183A6833
:1035E0001A60BB681B8903F101039AB2BB681A8198
:1035F000BB689B8903F101039AB2BB689A81BB68DF
:103600001A89BB685B899A4203D1BB684FF00002FC
:103610001A81F868FFF78EF9FCF794FD4FF000036C
:10362000184607F11007BD4680BD00BFF402001028
:10363000F500001080B586B000AF0346FB714B4B20
:103640001B78DBB2002B02D04FF0030388E0484B1D
:103650001B78FA799A4202D34FF0010380E0454B80
:103660001B78DBB203F10103DAB2424B1A70FB792B
:103670004FEAC302404BD318FB60FB689B784FF0C6
:103680002C0202FB03F23D4BD3187B617B694FF0A8
:10369000FF02DA71FB685B68002B0AD1FB684FF010
:1036A00000025A70FB684FF0FF029A70FCF74AFD67
:1036B00054E0FB689B78FB72FB68DB78FA7A9A42ED
:1036C00019D1FB685B687B617B691B79FB740EE039
:1036D0007B691B79FA7C9A4206D97B691B79FB745A
:1036E0007B699A79FB68DA707B695B6A7B617B69CD
:1036F000002BEDD108E0FB7A204A4FF02C0101FBB2
:1037000003F3D3181B79FB74FB684FF0FF029A7028
:10371000FB681B78FA7A10461946FDF731FAFB6808
:103720005B687B617B695A6AFB685A607B691A79BE
:10373000FB681A707B699A79FB689A707B69FA7CDE
:103740001A717B694FF000025A627B694FF00002E8
:103750009A627869FDF746F9FCF7F4FC4FF0000334
:10376000184607F11807BD4680BD00BFF4000010E1
:103770006C040010F50000107004001030010010FF
:1037800080B586B000AF78607B68DB794FEAC30212
:103790003C4BD3183B617B685B6A002B08D17B688C
:1037A0009B6A002B04D13B694FF000025A602DE068
:1037B0007B685B6A002B09D17B689B6A4FF0000233
:1037C0005A627B684FF000029A621FE07B689B6A36
:1037D000002B09D17B685B6A4FF000029A627B681C
:1037E0004FF000025A6211E07B685B6A7A68926A65
:1037F0009A627B689B6A7A68526A5A627B684FF069
:1038000000029A627B684FF000025A627B684FF0B8
:10381000FF02DA713B69DA787B689B799A422CD196
:103820003B695B687B603B691B78FB753B699A78F9
:103830003B69DA700EE07B681B79FA7D9A4206D903
:103840007B681B79FB757B689A793B69DA707B68CA
:103850005B6A7B607B68002BEDD13B699B78FB73D7
:103860003B694FF0FF029A70FA7BFB7D10461946C8
:10387000FDF786F93B69FA7B9A7007F11807BD4698
:1038800080BD00BF7004001080B584B000AF024658
:103890000B46FA71BB71234B1B78DBB203F10103BA
:1038A000DAB2204B1A704FF00003FB732EE01E4B70
:1038B0009A68FB7B4FF0010101FA03F302EA03036C
:1038C000002B1FD1184B9A68FB7B4FF0010101FAC6
:1038D00003F31A43144B9A60134B1A68B979FB7BB4
:1038E00001FA03F31A43104B1A600F4B5A68F97927
:1038F000FB7B01FA03F31A430B4B5A60FCF722FCE3
:10390000FB7B0AE0FB7B03F10103FB73FB7B1F2BBB
:10391000CDD9FCF717FC4FF0FF03184607F110074D
:10392000BD4680BDF5000010C004001080B58AB00F
:1039300000AF03463960FB71644B1B78DBB2002B90
:1039400002D04FF00303BBE0614B1B78DBB2002BCE
:1039500002D04FF01503B3E0FB791F2B02D94FF0D3
:103960000103ADE05B4B9A68FB794FF0010101FA6E
:1039700003F302EA0303002B02D14FF001039FE09F
:10398000534B1B78DBB203F10103DAB2504B1A70D0
:10399000504B7B627B6A1A68FB794FF0010101FA98
:1039A00003F302EA0303002B12D07B6A1A687B6AD6
:1039B0005968FB794FF0010000FA03F301EA0303B1
:1039C0006FEA03031A407B6A1A60FCF7BBFB75E0E1
:1039D000414B1B683B623B68002B36D1FB794FF0B3
:1039E000010202FA03F307F10C02104619464FF0E8
:1039F000020200F001F93B6A4FF002025A71374BA4
:103A00004FF001021A70FCF79DFB3B6A4FF0000279
:103A1000DA612F4B1B78DBB203F10103DAB22C4BD6
:103A20001A707B6A1A68FB794FF0010101FA03F3FF
:103A300019467B6A5B6801EA03036FEA03031A40D5
:103A40007B6A1A60FCF77EFB38E0FB794FF00102DD
:103A500002FA03F307F10C02104619464FF0020276
:103A600000F0CAF8386A3968FEF768FDFCF76AFBAF
:103A70003B6ADB69002B02D14FF0050320E03B6A73
:103A80004FF00002DA61124B1B78DBB203F1010345
:103A9000DAB20F4B1A707B6A1A68FB794FF001019A
:103AA00001FA03F319467B6A5B6801EA03036FEAD4
:103AB00003031A407B6A1A60FCF744FB4FF00003D3
:103AC000184607F12807BD4680BD00BFF40000106E
:103AD000F5000010C0040010A8020010F60000104D
:103AE00080B584B000AF0346FB71414BBB60FB79EE
:103AF0001F2B02D94FF0010374E0BB689A68FB7971
:103B00004FF0010101FA03F302EA0303002B02D193
:103B10004FF0010366E0BB681A68FB794FF00101C2
:103B200001FA03F302EA0303002B02D04FF0000373
:103B300058E0BB681A68FB794FF0010101FA03F302
:103B40001A43BB681A602B4B1B78DBB203F10103ED
:103B5000DAB2284B1A70BB68DB68FB603BE0FB689D
:103B60001B7C002B18D1FB689A68BB681B681A4045
:103B7000FB689B689A4227D1F86800F07DF8F860EE
:103B8000BB685A68FB794FF0010101FA03F302EABE
:103B90000303002B1CD021E0FB689A68BB681B68FC
:103BA00002EA0303002B0FD0F86800F065F8F86014
:103BB000BB685A68FB794FF0010101FA03F302EA8E
:103BC0000303002B06D009E0FB681B68FB6002E0E2
:103BD00000BF00E000BFFB68002BC0D1FCF7B2FAC9
:103BE0004FF00003184607F11007BD4680BD00BF27
:103BF000C0040010F500001080B487B000AFF8607A
:103C0000B9601346FB711A4B7B611A4B1B68FA684B
:103C1000DA61184B1A68FB68DA60FB68BA689A6068
:103C2000FB68FA791A747B691B69002B0BD1FB685E
:103C30004FF000021A60FB684FF000025A607B6987
:103C4000FA68DA600BE07B691B69FA681A607B69C5
:103C50001A69FB685A60FB684FF000021A607B69C2
:103C6000FA681A6107F11C07BD4680BC704700BFA7
:103C7000C0040010A802001080B584B000AF7860C6
:103C8000786800F025F87B68DB68FB60FB681B6ADE
:103C9000B3F1FF3F02D0F868FEF7CAFCFB684FF0B3
:103CA000FF32DA61094B1B68FA689A4204D1FB685B
:103CB0004FF001025A7102E0F868FCF793FE7B684E
:103CC0001B68184607F11007BD4680BDA80200100A
:103CD00080B483B000AF78607B681B68002B0CD188
:103CE0007B685B68002B08D11C4B4FF00002DA6048
:103CF0001A4B4FF000021A6125E07B681B68002B0D
:103D000009D17B685A68154B1A617B685B684FF074
:103D100000021A6017E07B685B68002B09D17B68A2
:103D20001A680E4BDA607B681B684FF000025A601D
:103D300009E07B681B687A6852685A607B685B6838
:103D40007A6812681A607B68DB684FF00002DA61FB
:103D500007F10C07BD4680BC704700BFC0040010CF
:103D600080B594B000AF464A07F11C0392E8030007
:103D7000186003F104031970424A07F1180312682E
:103D80001146198003F102034FEA12421A703E4AAB
:103D900007F10C0307CA03C31A704FF00003BB718D
:103DA0004FF000033B724FF00003FB714FF0000334
:103DB0007B714FF000033B7107F104031846FEF7D7
:103DC0007DFF4FF001037B7107F104031846FEF7F6
:103DD00075FF4FF00303BB714FF013037B7107F1C5
:103DE00004031846FEF76AFF4FF014037B7107F1D6
:103DF00004031846FEF762FF24482549FFF7D0F870
:103E000022484FF00101FFF729F9224B1B787B6212
:103E100007F11C03BB624FF00503FB624FF0000388
:103E20007B634FF00003BB634FF001033B6407F17A
:103E30002403164819464FF00002FFF791F907F1E5
:103E40001803BB624FF00303FB6207F124030F4822
:103E500019464FF00002FFF783F907F10C03BB622C
:103E60004FF00903FB6207F12403084819464FF09D
:103E70000002FFF775F907F15007BD4680BD00BF8E
:103E8000544400005C4400006044000000C0054051
:103E9000A08601005044000080B590B000AF0246FB
:103EA0000B46FA71BB714FF0000387F83F304FF0BB
:103EB000000387F83E30FB79022B08D0032B0BD090
:103EC000012B0ED14FF0000387F83F300EE04FF08A
:103ED000200387F83F3009E04FF0400387F83F3078
:103EE00004E04FF0000387F83F3000BF97F83F2011
:103EF000BB79D318DBB203F1FF3387F83E3097F874
:103F00003E3063F07F03DBB24FF002023A737B7303
:103F10000E4B1B783B6107F10C037B614FF00203F2
:103F2000BB614FF000033B624FF000037B624FF038
:103F30000103FB6207F11003054819464FF0000228
:103F4000FFF70EF907F14007BD4680BD5044000061
:103F500000C0054080B592B000AF78604FF001031B
:103F600087F847304FF040033B7215E097F8473031
:103F70007A68127862F07F02D2B207F14801CB185A
:103F800003F8402C7B6803F101037B6097F847300E
:103F900003F1010387F847307B681B78002B03D0BF
:103FA00097F847300F2BE1D90E4B1B78BB6107F117
:103FB0000803FB6197F847303B624FF00003BB6298
:103FC0004FF00003FB624FF001037B6307F118031E
:103FD000054819464FF00002FFF7C2F807F14807FD
:103FE000BD4680BD5044000000C0054080B58EB085
:103FF00000AF0346FB714FF040033B72FB7963F067
:104000007F03DBB27B720F4B1B78FB6007F1080369
:104010003B614FF002037B614FF00003FB614FF007
:1040200000033B624FF00103BB6207F10C0306483B
:1040300019464FF00002FFF793F807F13807BD4625
:1040400080BD00BF5044000000C0054080B584B072
:1040500000AF78604FF000037B7379683A4BA3FBA5
:1040600001234FEAD30213464FEA83039B184FEA1A
:104070004303CA1AD3B203F13003DBB23B737A684D
:10408000314BA3FB02134FEAD3012F4BA3FB0123B8
:104090004FEAD30213464FEA83039B184FEA4303C8
:1040A000CA1AD3B203F13003DBB2FB727A68274B32
:1040B000A3FB02134FEA5311234BA3FB01234FEA47
:1040C000D30213464FEA83039B184FEA4303CA1AED
:1040D000D3B203F13003DBB2BB727A681C4BA3FB93
:1040E00002134FEA9311184BA3FB01234FEAD302AB
:1040F00013464FEA83039B184FEA4303CA1AD3B20D
:1041000003F13003DBB27B727A68124BA3FB02131C
:104110004FEA53310C4BA3FB01234FEAD302134662
:104120004FEA83039B184FEA4303CA1AD3B203F141
:104130003003DBB23B7207F108031846FFF70AFFB2
:1041400007F11007BD4680BDCDCCCCCC1F85EB510F
:10415000D34D62105917B7D180B487B000AFF86063
:10416000B9607A607B687B617B694FF080721A600E
:104170007B69A3F104037B61FA687B691A607B6940
:10418000A3F104037B617B696FF001021A607B6914
:10419000A3F114037B61BA687B691A607B69A3F1A0
:1041A00020037B617B69184607F11C07BD4680BC74
:1041B000704700BF80B500AF244B1B78DBB203F122
:1041C0000103DAB2214B1A70214BD3E900014FF001
:1041D00001024FF00003121843EB01031C49C1E92F
:1041E00000231C4B1B68002B12D01A4B1B681B6A48
:1041F000012B06D9174B1B681A6A02F1FF321A62AB
:1042000006E0144B1B684FF000021A62FEF7AEFA8C
:10421000114B1B68002B12D00F4B1B685B68012BE6
:1042200006D90D4B1B685A6802F1FF325A6006E04E
:10423000094B1B684FF000025A60FCF7E1F9074B8D
:104240004FF001021A70FBF77DFF80BDF5000010F2
:10425000D8040010F002001028010010F600001031
:1042600080B584B000AF0346FB71FB79132B02D9F4
:104270004FF001032EE0FB794FEA0312184BD318DD
:10428000FB60FB685B7903F00F03DBB2012B02D00C
:104290004FF001031EE0FB68DA88FB681B899A4235
:1042A00002D14FF0060315E00E4B1B78DBB203F191
:1042B0000103DAB20B4B1A70FB68DB8803F10103D0
:1042C0009AB2FB68DA80F868FEF734FBFBF73AFF36
:1042D0004FF00003184607F11007BD4680BD00BF30
:1042E000F4020010F500001080B483B000AF7860D5
:1042F000FEE700BF80B483B000AF0346FB71FEE76A
:10430000433A5C4C6162536F66745C536F667477BA
:104310006172655C436F4944455C776F726B737083
:104320006163655C4578616D656E54525F436F7281
:10433000726967655F4E53415C6C706331377878A2
:104340005F6C69625C736F757263655C6C7063311E
:104350003778785F6164632E6300000050726F6786
:1043600072616D002244656D617272616765220041
:1043700022417272657422005461636865203000C6
:104380005672206C756500006176656320737563F5
:104390006365730056723D004465627574000000E9
:1043A000546163686520310056203D0044563D004D
:1043B00044563D2D0000000046696E00546163685C
:1043C0006520320075203D00753D2D0020202046DF
:1043D000696E20202000000020546163686520324F
:1043E000200000002020202020202020202020202D
:1043F00000000000433A5C4C6162536F66745C538A
:104400006F6674776172655C436F4944455C776F92
:10441000726B73706163655C4578616D656E545253
:104420005F436F72726967655F4E53415C6C706386
:10443000313778785F6C69625C736F757263655C45
:104440006C7063313778785F6932632E63000000E7
:104450003A000000002E0C06010000000080400021
:0C446000400609090600000000000000F2
:10446C0000E1F5050004000002000000040000005B
:0C447C0004ED00E000000010FCFFFFFF5A
:00000001FF
